:020000040800F2
:1000000000500020E91100083912000839120008D8
:1000100039120008391200083912000800000000E7
:10002000000000000000000000000000391200087D
:10003000391200080000000039120008F5270008F6
:100040003912000839120008391200083912000864
:100050003912000839120008391200083912000854
:100060003912000839120008391200083912000844
:100070003912000839120008391200083912000834
:100080003912000839120008391200083912000824
:100090003912000839120008391200083912000814
:1000A0003912000839120008391200083912000804
:1000B00039120008391200083912000839120008F4
:1000C00039120008391200083912000839120008E4
:1000D000391200083912000879080008391200089E
:1000E0003912000839120008000000003912000817
:1000F00039120008391200083912000839120008B4
:1001000039120008391200083912000839120008A3
:100110003912000839120008391200083912000893
:100120003912000839120008391200083912000883
:1001300010B5054C237833B9044B13B10448AFF321
:1001400000800123237010BDFC000020000000008F
:100150008044000808B5034B1BB103490348AFF3C3
:10016000008008BD0000000000010020804400085D
:1001700080B584B000AF7860114B1B68002B02D1B2
:100180000F4B104A1A600E4B1B68FB600C4B1A6831
:100190007B6813446A46934207D903F035FD024653
:1001A0000C2313604FF0FF3306E0054B1A687B68A1
:1001B0001344034A1360FB6818461037BD4680BDE0
:1001C0001801002030020020F0B58FB00CAF0223E0
:1001D0003B710023BB710023FB7002F0DFFA01F0DA
:1001E00083FD00F0D1FA00F0FFFA01F027F800F0EB
:1001F00093FA00F0ADFA2722B349B44801F05DFE4E
:1002000002F066F80122B249B24802F0F1FDAF48AF
:1002100001F0CCFEB049AD4801F0D5FE002201212D
:10022000AA4801F0E7FEAD49A84801F0CCFE08223B
:100230000121A64801F0DEFEA949A44801F0C3FE51
:1002400001F05AF80346BB70BB782A2B00F0AD8052
:10025000BB78232B00F0A980BB78442B00F0A5804D
:10026000BB78002B00F0A180BB78012B00F09D80B3
:10027000BB78412B00F09980BB78422B00F0958031
:10028000924801F093FE9749904801F09CFEBB799B
:100290009549BA78CA54642001F05AFD00237B7155
:1002A0000CE07B791A460121884801F0A3FE2A213F
:1002B000864801F06BFE7B7901337B717A79BB79DB
:1002C0009A42EED9BB790133BB71BB79042B40F064
:1002D0000A82854B1A78854B1B789A422DD1824B26
:1002E0005A78824B5B789A4227D17F4B9A787F4B22
:1002F0009B789A4221D17C4BDA787C4BDB789A420E
:100300001BD1724801F052FE042200216F4801F017
:1003100071FE77496D4801F056FE042201216B48B9
:1003200001F068FE7249694801F04DFE4FF4FA6031
:1003300001F00EFD0023BB711DE0644801F036FEA4
:1003400001220021614801F055FE6A495F4801F031
:100350003AFE012201215D4801F04CFE65495B48EF
:1003600001F031FE4FF47A7001F0F2FC574801F0D1
:100370001DFE0023BB71554801F018FE5649534835
:1003800001F021FE00220121504801F033FE5349C3
:100390004E4801F018FE082201214C4801F02AFEC7
:1003A0004F494A4801F00FFE9DE1BB78412B40F0D8
:1003B000A980464801F0FAFD01220021434801F0DE
:1003C00019FE4D49414801F0FEFD4C4E3F4A09AB34
:1003D00007CA83E807006D4606F110040FCC0FC56D
:1003E0000FCC0FC523682B6096E80F0003F00EFBBF
:1003F0000346FB7114E0414E344A09AB07CA83E857
:1004000007006D4606F110040FCC0FC50FCC0FC5C9
:1004100023682B6096E80F0003F0F8FA0346FB719F
:10042000FB79022BE7D0FB79002B19D1274801F08B
:10043000BDFD04220021254801F0DCFD2C492348A4
:1004400001F0C1FD04220121204801F0D3FD28491B
:100450001E4801F0B8FD4FF4FA6001F079FC18E095
:100460001A4801F0A3FD01220021184801F0C2FD45
:100470002349164801F0A7FD01220121134801F08C
:10048000B9FD1F49114801F09EFD4FF4FA6001F0DB
:100490005FFC0E4801F08AFD0F490C4801F093FD06
:1004A00000220121094801F0A5FD0C49074801F08F
:1004B0008AFD08220121054801F09CFD08490348F6
:1004C00001F081FDBCE600BF6C0100201802002095
:1004D0001C0100207801002098440008AC4400086A
:1004E000B4440008BC440008B00100201000002003
:1004F000CC440008D8440008E8440008B4010020B7
:10050000F8440008BB78422B7FF49AAE764801F09D
:100510004DFD02220021744801F06CFD73497248C0
:1005200001F051FD7249262001F0EFFF03461A4603
:10053000704B1A7007E06E49262001F0E6FF034673
:100540001A466C4B1A706B4B1B78002BF3D1684822
:1005500002F000F803461A46664B1A70654B1B788A
:10056000002B40F08E80644B1A78614B1B789A42C6
:1005700017D1614B5A785E4B5B789A4211D15E4B32
:100580009A785B4B9B789A420BD15B4BDA78584B4D
:10059000DB789A4205D1584B1A79554B1B799A4210
:1005A0003BD0564B1A78524B1B789A4217D1534B7B
:1005B0005A784F4B5B789A4211D1504B9A784C4BFA
:1005C0009B789A420BD14D4BDA78494BDB789A42B3
:1005D00005D14A4B1A79464B1B799A421DD0484B9C
:1005E0001A78434B1B789A4231D1454B5A78404B8D
:1005F0005B789A422BD1424B9A783D4B9B789A423A
:1006000025D13F4BDA783A4BDB789A421FD13C4BED
:100610001A79374B1B799A4219D1334801F0C6FC3D
:1006200004220021304801F0E5FC36492E4801F053
:10063000CAFC042201212C4801F0DCFC31492A4883
:1006400001F0C1FC4FF4FA6001F082FB32E0264871
:1006500001F0ACFC03220021234801F0CBFC2A4925
:10066000214801F0B0FC032201211F4801F0C2FC27
:1006700025491D4801F0A7FC4FF47A7001F068FB92
:1006800018E0194801F092FC03220021164801F0FD
:10069000B1FC1D49144801F096FC032201211248C7
:1006A00001F0A8FC1849104801F08DFC4FF47A7055
:1006B00001F04EFB0C4801F079FC14490A4801F0A6
:1006C00082FC00220121084801F094FC10490648F0
:1006D00001F079FC08220121034801F08BFC0D494F
:1006E000014801F070FCABE5180200200845000845
:1006F000080200202402002064010020EC010020F8
:10070000F8010020CC44000818450008984400086F
:10071000AC440008B444000880B584B000AF0B4B73
:100720007B600323FB7201237B7206233B723B1D1C
:10073000184601F0A3F807233B723B1D184601F051
:100740009DF800BF1037BD4680BD00BF000C0140C2
:1007500080B500AF094B0A4A1A60084B01225A7251
:10076000064B00221A72054B00229A72034B054A6F
:100770005A60024800F0C4FE00BF80BD6C0100203A
:1007800000540040A086010080B584B000AF154B36
:100790007B600223FB7203237B7209233B723B1DA8
:1007A000184601F06BF802233B723B1D184601F01E
:1007B00065F800237B720123FB720A233B723B1D09
:1007C000184601F05BF803233B723B1D184601F00D
:1007D00055F80121262002F035FB00BF1037BD4639
:1007E00080BD00BF0008014080B500AF1E4B1F4A0E
:1007F0001A601D4B02221A711B4B00225A731A4BAE
:1008000000221A73184B4FF461429A60164B022271
:100810009A73154802F05DFA154B164A1A60144B8C
:1008200002221A71124B00225A73114B00221A73C2
:100830000F4B4FF461429A600D4B02229A730C48A1
:1008400002F047FA0121262002F0FCFAC82001F04C
:100850007FFA0121054802F021FA0121054802F042
:100860001DFA00BF80BD00BFB40100200038014068
:10087000780100200044004080B500AF024802F03B
:1008800019FB00BF80BD00BF78010020F0B593B018
:100890000EAF78600B46FB70AD4B1B78412B40F0E0
:1008A000A980AC4801F082FBAB49AA4801F08BFB60
:1008B000AA4E6D4606F110040FCC0FC50FCC0FC524
:1008C00023682B6096E80F0002F0D2FE03461A461A
:1008D000A34B1A70002201219E4801F08BFBA04B14
:1008E0001B781A469F49A04803F0B8F99E499948D9
:1008F00001F069FB9A4B1B789BB201339CB2974E77
:10090000944A0AAB07CA83E8070009946D4606F1CA
:1009100010040FCC0FC50FCC0FC523682B6096E8D1
:100920000F0002F0EBFE03461A46904B1A708F4BF5
:100930001B78022B0BD1874801F038FB8C49854886
:1009400001F041FB4FF4FA7001F002FA31E0874BFD
:100950001B78002B14D17F4801F028FB85497D4886
:1009600001F031FB052201217A4801F043FB824965
:10097000784801F028FB4FF47A7001F0E9F918E0AB
:10098000744801F013FB01220021724801F032FB90
:100990007A49704801F017FB012201216D4801F0EE
:1009A00029FB76496B4801F00EFB4FF4FA7001F019
:1009B000CFF9684801F0FAFA7149664801F003FB83
:1009C00000220121634801F015FB6E49614801F0E6
:1009D000FAFA082201215F4801F00CFB6A495D48E0
:1009E00001F0F1FA4FF47A7301226849684802F085
:1009F00083FBC3E3564B1B78422B40F05881002306
:100A0000FB7300233B72534801F0D0FA042200210B
:100A1000504801F0EFFA5F494E4801F0D4FA4FF424
:100A20002F7001F095F94B4801F0C0FA5A49494836
:100A300001F0C9FA00220121464801F0DBFA5749CA
:100A4000444801F0C0FA00BF00F056FC03463B7278
:100A50003B7A002BF8D03B7A312B05D03B7A322BF6
:100A600002D03B7A332B02D1FB7B0133FB73FB7B40
:100A7000002BE9D00023FB733B7A1A4648494948CA
:100A800003F0ECF8334801F091FA4649314801F09F
:100A90009AFA4FF47A7001F05BF92E4801F086FA69
:100AA000022200212B4801F0A5FA3F49294801F014
:100AB0008AFA02220121274801F09CFA3A49254886
:100AC00001F081FA00BF3949262001F01EFD0346DE
:100AD0001A46374B1A70364B1B78002BF3D133482C
:100AE00001F038FD03461A46314B1A70304B1B7823
:100AF000002B40F0A2803A7A2C4B1B781C462B4BE3
:100B00005B781946294B9B781846284BDB78029373
:100B10000190009123462749274803F09FF83B7A2C
:100B2000312B4DD1214B1A78244B1A701F4B5A7818
:100B3000224B5A701D4B9A78204B9A701B4BDA78D7
:100B40001E4BDA70194B1A791C4B1A7164E000BF06
:100B50001C0100201802002028450008B4010020D4
:100B6000F10100203845000820010020000000208D
:100B7000484500085C4500086C450008F84400083A
:100B800098440008AC440008B44400080400002065
:100B90007801002074450008804500089045000851
:100BA000A445000848010020B445000808020020C0
:100BB00024020020C4450008340100206401002004
:100BC0003B7A322B14D1AA4B1A78AA4B1A70A84B35
:100BD0005A78A84B5A70A64B9A78A64B9A70A44B99
:100BE000DA78A44BDA70A24B1A79A24B1A7113E08F
:100BF0009F4B1A78A04B1A709D4B5A789E4B5A7097
:100C00009B4B9A789C4B9A70994BDA789A4BDA7096
:100C1000974B1A79984B1A71984801F0C7F900223E
:100C20000121964801F0E6F99549944801F0CBF985
:100C30004FF4FA6001F08CF818E0904801F0B6F932
:100C4000032200218D4801F0D5F98E498B4801F02F
:100C5000BAF903220121894801F0CCF98949874872
:100C600001F0B1F94FF47A7001F072F8834801F0A5
:100C70009DF98549814801F0A6F9002201217F48AC
:100C800001F0B8F981497D4801F09DF90822012160
:100C90007A4801F0AFF97E49784801F094F94FF4B1
:100CA0007A7301227B497C4802F026FA66E27B4B8C
:100CB0001B78432B40F042810023BB736F4801F047
:100CC00075F977496D4801F07EF94FF4FA7001F03B
:100CD0003FF86A4801F06AF904220021674801F0F0
:100CE00089F97049654801F06EF900BF00F004FB16
:100CF00003467B727B7A002BF8D07B7A2A2B2FD08D
:100D00007B7A232B2CD07B7A442B29D07B7A002B27
:100D100026D07B7A012B23D07B7A412B20D07B7A83
:100D2000422B1DD0BB7B60497A7ACA54642001F003
:100D30000FF800237B730CE07B7B1A4601214F48A0
:100D400001F058F92A214D4801F020F97B7B01334D
:100D50007B737A7BBB7B9A42EED9BB7B0133BB733F
:100D6000BB7B032BC2D90023BB73444801F01EF99F
:100D70004E49424801F027F900BF00F0BDFA034692
:100D80007B727B7A002BF8D07B7A2A2B2FD07B7A50
:100D9000232B2CD07B7A442B29D07B7A002B26D096
:100DA0007B7A012B23D07B7A412B20D07B7A422B7C
:100DB0001DD0BB7B3E497A7ACA54642000F0C8FF3C
:100DC00000233B730CE03B7B1A4601212B4801F0CA
:100DD00011F92A21294801F0D9F83B7B01333B73F3
:100DE0003A7BBB7B9A42EED9BB7B0133BB73BB7BA7
:100DF000042B7ED12C4B1A782D4B1B789A425FD155
:100E0000294B5A782A4B5B789A4259D1264B9A78CB
:100E1000274B9B789A4253D1234BDA78244BDB78CB
:100E20009A424DD1204B1A78224B1A701E4B5A7899
:100E3000204B5A701C4B9A781E4B9A701A4BDA78DA
:100E40001C4BDA700D4801F0B1F81B490B4801F05A
:100E5000BAF805220121094801F0CCF817490748E2
:100E600001F0B1F84FF4FA6000F072FF41E000BF0A
:100E700008020020EC010020F801002018020020E8
:100E8000340100201845000898440008AC440008CC
:100E9000B444000808000020780100201C01002054
:100EA000D8450008E8450008F4010020F445000892
:100EB000E801002010000020084600086C450008EA
:100EC000B34801F073F804220021B14801F092F810
:100ED000B049AF4801F077F804220121AC4801F095
:100EE00089F8AD49AA4801F06EF84FF4FA6000F0B5
:100EF0002FFFBB7B032B7FF640AFA54801F056F8D0
:100F0000A649A34801F05FF800220121A04801F0A2
:100F100071F8A3499E4801F056F8082201219C4827
:100F200001F068F89F499A4801F04DF84FF47A7340
:100F300001229D499D4802F0DFF81FE19C4B1B7880
:100F4000502B71D1924801F031F8042200219048D1
:100F500001F050F897498E4801F035F8042201213C
:100F60008B4801F047F89349894801F02CF84FF479
:100F70007A7000F0EDFE904E6D4606F110040FCC35
:100F80000FC50FCC0FC523682B6096E80F0002F049
:100F9000F7FD0346FE2B14D17D4801F007F801222E
:100FA00000217B4801F026F88449794801F00BF8CC
:100FB00001220121764801F01DF88149744801F0B1
:100FC00002F8734800F0F2FF06220021704801F099
:100FD00011F87C496E4800F0F6FF062201216C48AA
:100FE00001F008F878496A4800F0EDFF4FF47A7094
:100FF00000F0AEFE664800F0D9FF6849644800F092
:10100000E2FF00220121624800F0F4FF64496048D9
:1010100000F0D9FF082201215D4800F0EBFF614993
:101020005B4800F0D0FFA9E0614B1B78522B40F0E9
:10103000A5800023FB720023BB72554800F0B6FF69
:101040006249534800F0BFFF00220121504800F0E0
:10105000D1FF5F494E4800F0B6FF00BF00F04CF9E9
:101060000346BB72BB7A002BF8D0BB7A312B05D07C
:10107000BB7A322B02D0BB7A332B02D1FB7A0133FD
:10108000FB72FB7A002BE9D00023FB72BB7A1A4675
:101090005049514802F0E2FD3D4800F087FF4E49BB
:1010A0003B4800F090FF4FF47A7000F051FEBB7A9D
:1010B000312B0FD1494B00221A70484B00225A7035
:1010C000464B00229A70454B0022DA70434B0022B7
:1010D0001A7121E0BB7A322B0FD1414B00221A70DA
:1010E0003F4B00225A703E4B00229A703C4B00222C
:1010F000DA703B4B00221A710EE03A4B00221A7054
:10110000384B00225A70374B00229A70354B002220
:10111000DA70344B00221A711D4800F047FF062296
:1011200000211B4800F066FF2649194800F04BFFDC
:1011300006220121164800F05DFF2349144800F003
:1011400042FF4FF47A7000F003FE114800F02EFFCA
:1011500012490F4800F037FF002201210C4800F02F
:1011600049FF0F490A4800F02EFF082201210848D4
:1011700000F040FF0B49064800F025FF01220C4912
:101180000A4801F035FE00BF1437BD46F0BD00BF70
:101190001802002018460008244600089844000859
:1011A000AC440008B44400080C0000207801002082
:1011B0001C01002030460008B40100204046000811
:1011C00050460008644600086C4600088045000848
:1011D00078460008A445000848010020640100206A
:1011E000EC010020F80100200D4885460D480E490D
:1011F0000E4A002302E0D458C4500433C4188C4271
:10120000F9D30B4A0B4C002301E013600432A242D5
:10121000FBD3AFF3008002F0FDFCFEF7D5FFFEE745
:101220000050002000000020FC000020F0470008D3
:10123000FC00002030020020FEE7000080B588B0EE
:1012400000AF2B4B3B6100237B750223FB75012311
:10125000BB7500233B7507F11003184600F00EFB29
:1012600001233B7507F11003184600F007FB0B2321
:101270003B7507F11003184600F000FB0C233B758B
:1012800007F11003184600F0F9FA194B7B600123AF
:101290007B720023FB7204233B723B1D184600F057
:1012A000EDFA05233B723B1D184600F0E7FA0623D2
:1012B0003B723B1D184600F0E1FA07233B723B1DD1
:1012C000184600F0DBFA0023FB770AE0FB7F094AAF
:1012D000D35C01221946064800F0E2FCFB7F013393
:1012E000FB77FB7F032BF1D900BF2037BD4680BDC4
:1012F000000801402400002080B582B000AF002328
:10130000FB713BE0FB79214AD35C0022194620485F
:1013100000F0C6FC0023BB7122E0BB791D4AD35C00
:1013200019461B4800F0A8FC0346002B15D1642089
:1013300000F00EFD00BFBB79164AD35C1946144875
:1013400000F09AFC0346002BF5D0BA79FB791249DC
:1013500092000A4413441B7814E0BB790133BB713B
:10136000BB79032BD9D9FB79084AD35C01221946F2
:10137000074800F095FCFB790133FB71FB79032BE7
:10138000C0D9002318460837BD4680BD2400002080
:1013900000080140280000201400002080B483B021
:1013A00000AF78607B681B6843F480727B681A60CA
:1013B00000BF0C37BD4680BC704780B483B000AF1F
:1013C00078600B46FB70FB785B00FB70FB7823F0CA
:1013D0000103FB70FA787B681A6100BF0C37BD46C9
:1013E00080BC704780B485B000AF78607B685B6973
:1013F000FB607B689B69FB6000BF1437BD4680BC07
:10140000704780B483B000AF78607B681B6843F49A
:1014100000727B681A6000BF0C37BD4680BC704705
:1014200080B483B000AF78600B46FB70FB78002B74
:1014300015D07B68174A934206D1174BDB69164AD1
:1014400043F40013D3611FE07B68144A93421BD11D
:10145000114BDB69104A43F48003D36114E07B68CD
:101460000C4A934206D10C4BDB690B4A23F4001360
:10147000D36109E07B68094A934205D1064BDB69D9
:10148000054A23F48003D36100BF0C37BD4680BCFE
:10149000704700BF00540040001002400058004058
:1014A00080B483B000AF78600B46FB70FB78012BF3
:1014B00006D17B681B6843F480627B681A6005E094
:1014C0007B681B6823F480627B681A6000BF0C375E
:1014D000BD4680BC704780B483B000AF78600B46D7
:1014E000FB707B685A69FB781340002B01D0012305
:1014F00000E0002318460C37BD4680BC7047000052
:1015000080B584B000AF78600023FB607B681B6807
:1015100001211846FFF784FF0023FB6001F092F8D9
:1015200002464B4BA3FB02239B0CFA681343FB6060
:101530007B681B68FA6802F03F025A600023FB6078
:101540007B681B7A5B001A46FB681343FB60FB68F1
:1015500043F48043FB607B681B68FA689A60002351
:10156000FB607B685B683B4A93420FD801F06AF8E6
:1015700002467B685B685B00B2FBF3F37B817B898F
:10158000C3F30B03FA681343FB6037E0FB6843F4D3
:101590000043FB607B689B7A9B031A46FB681343FE
:1015A000FB607B689B7A002B11D101F04BF8014660
:1015B0007B685A6813465B001344B1FBF3F37B81ED
:1015C0007B89C3F30B03FA681343FB6016E07B6867
:1015D0009B7A012B12D101F035F801467B685A68DD
:1015E00013469B0013449A001344B1FBF3F37B8131
:1015F0007B89C3F30B03FA681343FB607B681B68AA
:10160000FA68DA617B685B68124A934209D801F094
:1016100019F802460E4BA3FB02239B0C0133FB601F
:101620000CE001F00FF802464FF4967303FB02F34F
:10163000074AA2FB03239B0C0133FB607B681B68FA
:10164000FA6802F03F021A6200BF1037BD4680BD43
:1016500083DE1B43A086010080B582B000AF7860B6
:101660000B46FB70FB78012B0AD17B681B6843F0AB
:1016700001027B681A6001217868FFF711FF05E01D
:101680007B681B6823F001027B681A6000BF083783
:10169000BD4680BD80B584B000AFF860B96011462A
:1016A0001A460B46FB711346BB7101212E48FFF70A
:1016B000D3FFFB681B681846FFF770FE00BFFB688E
:1016C0001B6801211846FFF706FF0346002BF6D0E2
:1016D000FB681B68BA7911461846FFF76EFE00BF1B
:1016E000FB681B6802211846FFF7F5FE0346002B36
:1016F000F6D0FB681B681846FFF774FE14E000BFC5
:10170000FB681B6880211846FFF7E5FE0346002BA7
:10171000F6D0BB681A78FB681B681A61BB68013396
:10172000BB60FB79013BFB71FB79002BE7D100BF6C
:10173000FB681B6880211846FFF7CDFE0346002B8F
:10174000F6D000BFFB681B6804211846FFF7C3FEF4
:101750000346002BF6D0FB681B681846FFF751FEC6
:1017600000BF1037BD4680BD0054004080B483B038
:1017700000AF78600B46FB70FB78002B36D07B689F
:10178000384A934206D1384B9B69374A43F00403E9
:10179000936161E07B68354A934206D1324B9B6985
:1017A000314A43F00803936156E07B68304A934224
:1017B00006D12D4B9B692C4A43F0100393614BE0FB
:1017C0007B682C4A934206D1274B9B69264A43F0FB
:1017D0002003936140E07B68274A93423CD1224B2F
:1017E0009B69214A43F04003936135E07B681D4AC1
:1017F000934206D11C4B9B691B4A23F0040393615F
:101800002AE07B68194A934206D1174B9B69164A16
:1018100023F0080393611FE07B68154A934206D1C9
:10182000114B9B69104A23F01003936114E07B680D
:10183000104A934206D10C4B9B690B4A23F02003BC
:10184000936109E07B680C4A934205D1064B9B6982
:10185000054A23F04003936100BF0C37BD4680BCAE
:10186000704700BF0008014000100240000C01401A
:1018700000100140001401400018014080B586B0FE
:1018800000AF78607B681B6801211846FFF76EFF88
:101890007B681B79072B8CBF01230023FB757B68BA
:1018A0001B7903F00703BB757B685B79032B24D896
:1018B0007B681B68FA7D53F82210BB7D9B000322D6
:1018C00002FA03F3DB4318467B681B68FA7D01408C
:1018D00043F822107B681B68FA7D53F822107B685E
:1018E0005B791A46BB7D9B0002FA03F318467B68BE
:1018F0001B68FA7D014343F822107B685B79002B5B
:1019000006D17B68DB79032B02D17B680122DA7177
:101910007B681B68FA7D53F82210BB7D9B00023365
:10192000032202FA03F3DB4318467B681B68FA7D47
:10193000014043F822107B681B68FA7D53F822109F
:101940007B68DB791A46BB7D9B00023302FA03F306
:1019500018467B681B68FA7D014343F822107B68B8
:101960005B79002B1FD17B689B79012B0DD17B68A4
:101970001B68DA687B681B79194601238B4019467E
:101980007B681B680A43DA600DE07B681B68DA68D5
:101990007B681B79194601238B40DB4319467B6822
:1019A0001B680A40DA607B685B79002B6BD17B682F
:1019B0001B7A022B67D1944B9B687A681279114687
:1019C00001228A401146904A0B4393608E4BDB689C
:1019D0007A681279114601228A40D24311468A4A16
:1019E0000B40D360894B9B69884A43F001039361A4
:1019F0007B681B799B087B757B681B7903F003036D
:101A00003B757B681B68824A93421DD07B681B68CC
:101A1000804A934216D07B681B687F4A93420FD05E
:101A20007B681B687D4A934208D07B681B687C4AB0
:101A3000934201D1042308E0002306E0032304E0DD
:101A4000022302E0012300E00023FB74754A7B7D42
:101A5000023352F82320F97C3B7D9B0001FA03F30B
:101A6000184670497B7D0243023341F82320664BC0
:101A70001B687A681279114601228A401146624A2F
:101A80000B431360EFE07B685B79002B6BD17B68C5
:101A90001B7A042B67D15C4BDB687A68127911469C
:101AA00001228A401146584A0B43D360564B9B682B
:101AB0007A681279114601228A40D2431146524A6D
:101AC0000B409360514B9B69504A43F00103936173
:101AD0007B681B799B08BB747B681B7903F003034D
:101AE0007B747B681B684A4A93421DD07B681B68E5
:101AF000484A934216D07B681B68474A93420FD0EE
:101B00007B681B68454A934208D07B681B68444A3F
:101B1000934201D1042308E0002306E0032304E0FC
:101B2000022302E0012300E000233B743D4ABB7C1A
:101B3000023352F82320397C7B7C9B0001FA03F3AB
:101B400018463849BB7C0243023341F823202E4B10
:101B50001B687A681279114601228A4011462A4A86
:101B60000B4313607FE07B685B79002B7BD17B6844
:101B70001B7A062B77D1244B9B687A681279114621
:101B800001228A401146204A0B4393601E4BDB68BA
:101B90007A681279114601228A4011461A4A0B438B
:101BA000D3601A4B9B69194A43F0010393617B6828
:101BB0001B799B08FB737B681B7903F00303BB73E2
:101BC0007B681B68124A93422ED07B681B68114ABF
:101BD000934216D07B681B680F4A93420FD07B68F4
:101BE0001B680E4A934208D07B681B680C4A9342DC
:101BF00001D1042319E0002317E0032315E0022399
:101C000013E0012311E000BF000401400010024076
:101C100000080140000C0140001001400014014088
:101C2000001801400000014000237B73104AFB7B39
:101C3000023352F82320797BBB7B9B0001FA03F32C
:101C400018460B49FB7B0243023341F82320094B22
:101C50001B687A681279114601228A401146054AAA
:101C60000B431360FFE700BF1837BD4680BD00BFC0
:101C7000000001400004014080B483B000AF7860F0
:101C80000B46FB707B689A68FB7822FA03F3DBB2A1
:101C900003F00103DBB218460C37BD4680BC704729
:101CA00080B483B000AF78600B46FB701346BB7006
:101CB000BB78012B09D17B68DB68FA78012101FA36
:101CC00002F21A437B68DA6009E07B68DB68FA7825
:101CD000012101FA02F2D2431A407B68DA6000BFA8
:101CE0000C37BD4680BC704780B582B000AF154B45
:101CF000DB69144A43F00403D36100F0A3FC78606D
:101D0000104B5B689B0A03F00103002B02D07B6839
:101D10005B007B607B680C4AA2FB03239B093B6052
:101D20003B689AB2094B9A62084B4FF6FF72DA622F
:101D3000064B5B69054A43F00103536100BF083756
:101D4000BD4680BD00100240D34D62100008004027
:101D500080B487B000AF7860184B1B68174A43F017
:101D6000010313607B6801333B61144B5B6AFB82A8
:101D700018E03B69B3F5803F02D23B699BB201E0BA
:101D80004FF6FF73FB81FB893A69D31A3B610B4B1A
:101D90005B6ABB81BA89FB8AD21AFB899A42F6DB5D
:101DA000BB89FB823B69002BE3D1044B034A1B68D0
:101DB000136000BF1C37BD4680BC70470008004060
:101DC00080B485B000AF78600023FB6002E0FB6860
:101DD0000133FB607B684FF47A7202FB03F3FA680D
:101DE0009A42F4D300BF1437BD4680BC704780B41C
:101DF00085B000AF78600023FB6002E0FB68013330
:101E0000FB60FA687B689A42F8D300BF1437BD467E
:101E100080BC704780B584B000AF78600B46FB7023
:101E20001346BB70FB7823F00F03FB73FB781B0199
:101E3000BB737B685B7A002B07D0FB7B43F0080306
:101E4000FB73BB7B43F00803BB73BB78012B08D14A
:101E5000FB7B43F00103FB73BB7B43F00103BB73CC
:101E60000AE0BB78002B07D1FB7B23F00103FB7357
:101E7000BB7B23F00103BB73FB7B43F00403DBB2AA
:101E80003B720120FFF79CFFFB7B7B72BB7B43F027
:101E90000403DBB2BB720120FFF792FFBB7BFB7236
:101EA0007B6818687B681B7907F108010422FFF73B
:101EB000F1FB00BF1037BD4680BD80B584B000AFD8
:101EC000F860B9601346FB71FB68BA681A60FB687A
:101ED000FA791A71FB6828221A72FB6806225A7175
:101EE000FB680C229A71FB681422DA71FB680822E5
:101EF0005A723220FFF764FF00223321F868FFF79F
:101F000089FF0520FFF75CFF00223321F868FFF707
:101F100081FFC820FFF76BFF00223221F868FFF72E
:101F200079FF0520FFF74CFF00222021F868FFF71A
:101F300071FF0520FFF744FFFB685B79002219461B
:101F4000F868FFF767FFFB689B7900221946F8687D
:101F5000FFF760FFFB68DB7900221946F868FFF79E
:101F600059FFFB681B7A00221946F868FFF752FFF9
:101F700000220121F868FFF74DFF00220221F868D6
:101F8000FFF748FF00BF1037BD4680BD80B582B067
:101F900000AF78600B46FB70FB7801221946786829
:101FA000FFF738FF00BF0837BD4680BD80B582B05F
:101FB00000AF7860002201217868FFF72BFF00BF97
:101FC0000837BD4680BD80B582B000AF786039600B
:101FD00008E03B685A1C3A601B7801221946786871
:101FE000FFF718FF3B681B78002BF2D100BF0837C2
:101FF000BD4680BD80B582B000AF78600B46FB70F7
:102000001346BB70FB78002B02D0012B05D009E0F2
:10201000BB7863F07F03BB7004E0BB7863F03F03E1
:10202000BB7000BFBB78002219467868FFF7F2FE4C
:1020300000BF0837BD4680BD80B58CB000AF78606A
:102040000B467B807B68364A934220D1354B7B62BE
:10205000022387F82B30032387F82930052387F8DC
:10206000283007F124031846FFF708FC062387F8F9
:10207000283007F124031846FFF700FC072387F8F0
:10208000283007F124031846FFF7F8FB29E07B68A6
:10209000254A934225D1234B7B62022387F82B30BC
:1020A000032387F829300D2387F8283007F124030C
:1020B0001846FFF7E3FB0F2387F8283007F12403C6
:1020C0001846FFF7DBFB002387F829300E2387F83B
:1020D0002830012387F82B3007F124031846FFF737
:1020E000CDFB7B687B6101237B7301233B737B8882
:1020F000DBB2BB740023BB730023FB7300233B7470
:1021000001237B7407F10C03184600F0D9FB012171
:10211000054800F07DFC00BF3037BD4680BD00BFE4
:1021200000300140000C01400038004080B584B010
:1021300000AF78600B46FB70FB78FB7307F10F0371
:1021400001221946786800F099FC07F10E0301227C
:102150001946786800F0D4FCBB7B18461037BD46A2
:1021600080BD000080B582B000AF0346FB71FB79F3
:1021700019460448FFF7DAFF034618460837BD46FC
:1021800080BD00BF0038004080B582B000AF03467C
:102190000A46FB711346BB7100220C210C48FFF765
:1021A0007FFDFB795B00DBB203F07E03DBB21846F8
:1021B000FFF7D8FFBB791846FFF7D4FF01220C21A7
:1021C0000348FFF76DFD00BF0837BD4680BD00BF67
:1021D000000C014080B584B000AF0346FB710022C3
:1021E0000C210F48FFF75CFDFB795B005BB203F04D
:1021F0007E035BB263F07F035BB2DBB21846FFF78E
:10220000B1FF0020FFF7AEFF0346FB7301220C2154
:102210000348FFF745FDFB7B18461037BD4680BDE0
:10222000000C014080B584B000AF03460A46FB7144
:102230001346BB71FB791846FFF7CCFF0346FB73CF
:10224000FA7BBB791343DAB2FB7911461846FFF7E4
:102250009BFF00BF1037BD4680BD80B584B000AF86
:1022600003460A46FB711346BB71FB791846FFF71C
:10227000B1FF0346FB7397F90630DB435AB297F977
:102280000F3013405BB2DAB2FB7911461846FFF704
:102290007BFF00BF1037BD4680BD80B500AF032176
:1022A0001420FFF7BFFF00BF80BD80B500AF0F2136
:1022B0000120FFF769FF00BF80BD000080B500AFBF
:1022C00002210248FFF7B8FE00BF80BD0038004081
:1022D00080B584B000AF264B9B69254A43F00803C4
:1022E0009361234B9B69224A43F008039361214B7E
:1022F0007B600C233B7203237B720023FB723B1D2C
:102300001846FFF7BBFA1B4B7B600B233B723B1D50
:102310001846FFF7B3FA01220C211648FFF7C0FC5C
:1023200001220B211348FFF7BBFCFFF7C7FFFFF7A4
:10233000BCFF8D212A20FFF727FF3E212B20FFF72E
:1023400023FF1E212D20FFF71FFF00212C20FFF768
:102350001BFF40211520FFF717FF3D211120FFF73C
:1023600013FFFFF79AFF00BF1037BD4680BD00BFC7
:1023700000100240000C014090B589B000AFB96078
:102380007B600346FB731346BB730223FB7700237A
:10239000BB7700237B77FB7B0C2B07D00E2B00D069
:1023A00009E01223BB7710237B7704E07723BB7708
:1023B00030237B7700BFBB7F63F07F03DBB219461E
:1023C0000220FFF7E1FE80210420FFF746FF802175
:1023D0000A20FFF727FF00210120FFF7D5FE002389
:1023E000BB610AE0BA68BB6913441B78194609202F
:1023F000FFF7CAFEBB690133BB61BB7BBA699A4276
:10240000F0D3FB7B19460120FFF7BEFEFB7B0C2BB4
:1024100003D180210D20FFF705FF4FF4FA63BB6164
:102420000420FFF7D7FE03463B77BB69013BBB6146
:10243000BB69002B0AD03B7F03F00103002B05D1C1
:102440003A7F7B7F1340DBB2002BE9D080210D2047
:10245000FFF703FFBB69002B52D00620FFF7BAFE3F
:10246000034603F01B03002B48D10023FB773A7F80
:10247000BB7F1340DBB203F00103002B01D001232B
:10248000FB77FB7B0C2B3BD10A20FFF7A3FE034617
:102490003B770C20FFF79EFE034603F00703FB7516
:1024A000FB7D002B08D03B7F013BDA00FB7D134412
:1024B0001A463B6B1A6004E03B7FDB001A463B6B1D
:1024C0001A603B7F002B01D101233B773B7F102B10
:1024D00001D910233B770023BB610AE07A68BB690E
:1024E000D4180920FFF776FE03462370BB69013339
:1024F000BB613B7FBA699A42F0D301E00223FB77CC
:10250000FB7F18462437BD4690BD80B586B002AF2C
:1025100003463960FB7107210D20FFF735FE3B684C
:10252000FA791A7007F1080300933B6801223968B1
:102530000C20FFF721FF0346FB73FB7B002B02D12E
:10254000BB68102B01D00223FB73FB7B18461037AE
:10255000BD4680BD80B586B002AF786000237B7336
:1025600000210D20FFF710FE7B6893221A707B6814
:10257000013320221A7007F1080300937B680222BE
:1025800079680C20FFF7F8FE0346FB73FB7B002BFA
:1025900018D10023BB7309E0BB7B7A6813441A7817
:1025A0007B7B53407B73BB7B0133BB73BB7B032BB8
:1025B000F2D9BB7B7A6813441B787A7B9A4201D0AC
:1025C0000223FB73FB7B18461037BD4680BD00001D
:1025D00080B485B000AF174B5B681B0CDBB203F017
:1025E0000103FB72FB7A002B02D1134BFB600EE060
:1025F000104B5B685B0CDBB203F00103BB72BB7A70
:10260000012B02D10C4BFB6001E00C4BFB60094B32
:102610005B689B0C7B727B7A094AD35C3B723A7A8B
:10262000FB6802FB03F37B607B6818461437BD46EA
:1026300080BC70470010024000093D0000127A0083
:102640004000002080B584B000AF254B5B689B083C
:10265000DBB203F003037B727B7A002B02D1214BA8
:10266000FB600AE07B7A012B02D11E4BFB6004E089
:102670007B7A022B01D1FFF7ABFF194B5B681B097B
:10268000DBB203F00F033B723B7A072B02D8012326
:10269000FB7205E03B7A083B134A32F81330FB72B9
:1026A0000F4B5B681B0ADBB203F007033B723B7AFC
:1026B000032B02D80123BB7204E03B7A043B0B4A94
:1026C000D35CBB72FB7AFA68B2FBF3F2BB7AB2FB63
:1026D000F3F37B607B6818461037BD4680BD00BFB2
:1026E0000010024000127A002C0000203C00002064
:1026F00080B584B000AF254B5B689B08DBB203F06C
:1027000003037B727B7A002B02D1214BFB600AE032
:102710007B7A012B02D11E4BFB6004E07B7A022BFB
:1027200001D1FFF755FF194B5B681B09DBB203F0C2
:102730000F033B723B7A072B02D80123FB7205E0A3
:102740003B7A083B134A32F81330FB720F4B5B683D
:10275000DB0ADBB203F007033B723B7A032B02D8A0
:102760000123BB7204E03B7A043B0B4AD35CBB728F
:10277000FB7AFA68B2FBF3F2BB7AB2FBF3F37B604D
:102780007B6818461037BD4680BD00BF0010024070
:1027900000127A002C0000203C00002080B400AF22
:1027A0000E4B41F63F725A600C4B00229A600B4B65
:1027B0001B680A4A43F002031360084B1B68074A70
:1027C00043F004031360054B1B68044A43F0010304
:1027D000136000BFBD4680BC704700BF10E000E042
:1027E00080B400AF024B1B681846BD4680BC7047E2
:1027F0002802002080B400AF044B1B680133034A59
:10280000136000BFBD4680BC704700BF2802002097
:1028100080B483B000AF78600B46FB70FB78002B70
:1028200020D07B68224A934206D1224B9B69214AE1
:1028300043F48053936135E07B681F4A934206D18D
:102840001C4BDB691B4A43F48043D3612AE07B685D
:102850001A4A934226D1174BDB69164A43F40043C8
:10286000D3611FE07B68124A934206D1114B9B69EA
:10287000104A23F48053936114E07B680E4A93421C
:1028800006D10C4BDB690B4A23F48043D36109E08A
:102890007B680A4A934205D1064BDB69054A23F45B
:1028A0000043D36100BF0C37BD4680BC704700BFFA
:1028B000003001400010024000380040003C004061
:1028C00080B584B000AF78607B689B6801211846B2
:1028D000FFF79EFF0023FB60FB6843F48073FB60FF
:1028E0007B681B789B001A46FB681343FB607B6880
:1028F0009B78DB021A46FB681343FB607B68DB783E
:102900001A46FB681343FB607B681B795B001A4621
:10291000FB681343FB607B689B79DB001A46FB680E
:102920001343FB607B685B79012B07D17B685B7984
:102930005B021A46FB681343FB600BE07B685B7924
:102940005B02DB431A46FB681340FB600121184819
:1029500000F079F87B685B78012B08D1FB6823F4E1
:102960000043FB60FB6823F48063FB6014E07B683A
:102970005B78022B04D1FB6843F40043FB600BE05F
:102980007B685B78032B07D1FB6823F40043FB6073
:10299000FB6843F48063FB607B689B6819687B6815
:1029A0009B68FA680A431A6000BF1037BD4680BDB5
:1029B0000038004080B483B000AF786039607B6835
:1029C0009A683B681340002B01D0012300E00023EC
:1029D00018460C37BD4680BC704780B483B000AF4A
:1029E00078600B46FB70FB78002B06D07B681B6879
:1029F00043F040027B681A6005E07B681B6823F0A7
:102A000040027B681A6000BF0C37BD4680BC70472F
:102A100080B483B000AF78600B46FB70FB78002B6E
:102A200006D07B681B6843F480727B681A6005E0FF
:102A30007B681B6823F480727B681A6000BF0C37C8
:102A4000BD4680BC704780B483B000AF78600B4651
:102A5000FB70FB78002B06D07B685B6843F00402B8
:102A60007B685A6005E07B685B6823F004027B6842
:102A70005A6000BF0C37BD4680BC704780B584B03B
:102A800000AFF860B9607A6001211C48FFF7A5FF2C
:102A900025E000BF0221F868FFF78CFF0346002BFA
:102AA000F8D0FB681B68DB0A03F00103012B0BD194
:102AB000BB681B881A46FB68DA60BB680133BB60E1
:102AC0007B68013B7B6007E0BB681B781A46FB68AC
:102AD000DA60BB680133BB607B68013B7B607B686D
:102AE000002BD6D100BF80210448FFF763FF0346C7
:102AF000002BF8D100BF1037BD4680BD0038004024
:102B000080B584B000AFF860B9607A6025E000BF9E
:102B10000121F868FFF74EFF0346002BF8D0FB6851
:102B20001B68DB0A03F00103012B0BD1FB68DB6898
:102B30009AB2BB681A807B68013B7B60BB6801333B
:102B4000BB6007E0FB68DB68DAB2BB681A70BB6881
:102B50000133BB607B68013B7B607B68002BD6D177
:102B600000BF1037BD4680BD80B483B000AF786031
:102B70000B46FB70FB78002B20D07B68224A9342E7
:102B800006D1224B9B69214A43F48043936135E08F
:102B90007B681F4A934206D11C4BDB691B4A43F4F6
:102BA0000033D3612AE07B681A4A934226D1174B3F
:102BB000DB69164A43F48023D3611FE07B68124A25
:102BC000934206D1114B9B69104A23F480439361D1
:102BD00014E07B680E4A934206D10C4BDB690B4A2A
:102BE00023F40033D36109E07B680A4A934205D19C
:102BF000064BDB69054A23F48023D36100BF0C3701
:102C0000BD4680BC704700BF003801400010024044
:102C1000004400400048004080B588B000AF7860B4
:102C200039600023BB617B681A4A934203D1FFF7E6
:102C30005FFDF86102E0FFF705FDF861FB696422C2
:102C400002FB03F23B681B01B2FBF3F37B617B6980
:102C5000114AA2FB03235B093B613B691B01BA6973
:102C60001343BB613B69642202FB03F37A69D31A05
:102C70001B013233084AA2FB03235B09FB60BA69DC
:102C8000FB681343BB617B68BA699A6000BF203759
:102C9000BD4680BD003801401F85EB5180B483B034
:102CA00000AF78600B46FB70FB78002B06D07B688A
:102CB000DB6843F400527B68DA6005E07B68DB6820
:102CC00023F400527B68DA6000BF0C37BD4680BC3D
:102CD000704780B584B000AF78607B68002B01D16D
:102CE00001236EE07B681B6801211846FFF73CFF5B
:102CF0000023FB600023BB607B681B79002B04D1A1
:102D0000FB6843F00803FB6014E07B681B79002B31
:102D100004D1FB6843F00403FB600BE07B681B7984
:102D2000022B07D1FB6843F00803FB60FB6843F00C
:102D30000403FB607B685B7B1B031A46FB68134341
:102D4000FB607B689B7B002B08D1FB6843F48063AE
:102D5000FB60FB6823F40073FB6014E07B689B7BE3
:102D6000012B08D1FB6843F48063FB60FB6843F4EC
:102D70000073FB6007E07B689B7B022B03D1FB6841
:102D800023F48063FB607B681B7B1B031A46BB68D4
:102D90001343BB607B681A687B689B6819461046C2
:102DA000FFF73AFF7B681B68FA68DA607B681B688C
:102DB000BA681A617B6820229A767B682022DA76CC
:102DC000002318461037BD4680BD80B483B000AFE5
:102DD000786039607B681A683B681340002B01D02B
:102DE000012300E0002318460C37BD4680BC704725
:102DF00080B586B000AFF860B9607A60FB68DB7EB2
:102E0000FB75FB681B6801211846FFF747FFFB7D38
:102E1000222B11D0FB68BA685A617B68DAB2FB6872
:102E20005A76FB682222DA76FB681B68DA68FB6850
:102E30001B6842F02002DA60FB7D18461837BD4659
:102E400080BD000080B485B000AF03460A46FB7128
:102E50001346BB71FB795B09FB73BB79012B10D166
:102E6000124AFB7B52F82320FB7903F01F03012158
:102E700001FA03F318460D49FB7B024341F8232076
:102E80000FE00B4AFB7B52F82320FB7903F01F0372
:102E9000012101FA03F318460549FB7B024341F87F
:102EA000232000BF1437BD4680BC704700E100E01E
:102EB00080E100E080B586B000AF78607B681B6879
:102EC0001B6803F040037B617B681B68DB6803F0D1
:102ED00040033B617B69002B1FD03B69002B1CD05A
:102EE0007B689B7E212B18D17B681B7E002B14D125
:102EF0007B681B681A687B681B6822F040021A60B6
:102F00007B6820229A767B6800221A617B68002207
:102F10001A7601217868FDF7B9FC7B681B681B688D
:102F200003F080037B617B681B68DB6803F0800330
:102F30003B617B69002B57D03B69002B54D07B68E9
:102F40009B7E212B50D17B681B7E002B40D07B6861
:102F50005B7B012B2BD17B681B69FB60FB681B88AB
:102F60001A467B681B68C2F308025A607B689B7B29
:102F7000022B10D17B681B695A1C7B681A617B6825
:102F80001B695A1C7B681A617B681B7E023BDAB2A4
:102F90007B681A761CE07B681B695A1C7B681A6187
:102FA0007B681B7E013BDAB27B681A7610E07B6897
:102FB0001B691A787B681B685A607B681B695A1CFE
:102FC0007B681A617B681B7E013BDAB27B681A76EC
:102FD0007B681B7E002B07D17B681B68DA687B68E7
:102FE0001B6822F08002DA607B681B681B6803F0B4
:102FF00020037B617B681B68DB6803F020033B6177
:103000007B69002B74D03B69002B71D07B68DB7E21
:10301000222B6DD17B685B7E002B56D07B685B7B5F
:10302000012B31D17B689B7B022B1AD17B681B68FB
:103030005B689AB27B685B69C2F3080292B21A803D
:103040007B685B695A1C7B685A617B685B695A1CA8
:103050007B685A617B685B7E023BDAB27B685A769A
:1030600033E07B681B685A687B685B69D2B21A7070
:103070007B685B695A1C7B685A617B685B7E013B9D
:10308000DAB27B685A7620E07B689B7B022B07D103
:103090007B681B685A687B685B69D2B21A7009E06A
:1030A0007B681B685B68DAB27B685B6902F07F0251
:1030B000D2B21A707B685B695A1C7B685A617B6864
:1030C0005B7E013BDAB27B685A767B685B7E002BC5
:1030D0000ED17B681B68DA687B681B6822F02002CF
:1030E000DA607B682022DA7602217868FDF7CEFB71
:1030F00000BF1837BD4680BD80B58AB002AFF8600A
:10310000B9603B601346FB8000237B61FB689B7EBC
:10311000202B6AD1BB68002B02D0FB88002B01D189
:10312000012363E0FB68E022DA61FB6821229A76E2
:10313000FFF756FB7861FB68FA889A85FB68FA8886
:103140001A85FB685B7B012B08D1FB689B7B022BFC
:1031500004D10023FB61BB68BB6103E0BB68FB617A
:103160000023BB612AE03B6800937B690022802139
:10317000F86800F03FF80346002B01D0032335E048
:10318000FB69002B0BD1BB691B881A46FB681B68C7
:10319000C2F308025A60BB690233BB6107E0FB69F6
:1031A0001A78FB681B685A60FB690133FB61FB6896
:1031B0001B8D9BB2013B9AB2FB681A85FB681B8D85
:1031C0009BB2002BCFD13B6800937B69002240214A
:1031D000F86800F00FF80346002B01D0032305E048
:1031E000FB6820229A76002300E00223184620374D
:1031F000BD4680BD80B584B000AFF860B9603B606B
:103200001346FB7116E0BB69B3F1FF3F12D0BB69F7
:10321000002B07D0FFF7E4FA02463B68D31ABA69DD
:103220009A4207D2FB6820229A76FB682022DA763F
:1032300003230BE0FB681B68B9681846FFF7C5FD60
:1032400003461A46FB799342DDD000231846103717
:10325000BD4680BD80B58AB002AFF860B9603B6002
:103260001346FB8000237B61FB68DB7E202B75D13E
:10327000BB68002B02D0FB88002B01D101236EE03C
:10328000FB68E022DA61FB682222DA76FFF7A8FA0F
:103290007861FB68FA881A84FB68FA885A85FB68AB
:1032A0005B7B012B08D1FB689B7B022B04D10023A5
:1032B000FB61BB68BB6103E0BB68FB610023BB61D2
:1032C00042E03B6800937B6900222021F868FFF709
:1032D00091FF0346002B01D0032340E0FB69002B44
:1032E0000CD1FB681B685B689BB2C3F308039AB2FE
:1032F000BB691A80BB690233BB611EE0FB685B7B64
:10330000012B07D0FB685B7B002B0AD1FB689B7B02
:10331000022B06D1FB681B685B68DAB2FB691A7086
:1033200008E0FB681B685B68DBB203F07F03DAB27E
:10333000FB691A70FB690133FB61FB685B8D9BB213
:10334000013B9AB2FB685A85FB685B8D9BB2002BF0
:10335000B7D1FB682022DA76002300E0022318466A
:103360002037BD4680BD000084B080B500AF07F1B6
:10337000080C8CE80F004FF47A730622054907F118
:103380000800FFF7B9FE00BFBD46BDE8804004B0AD
:10339000704700BF5000002084B080B500AF07F137
:1033A000080C8CE80F004FF47A730622054907F1E8
:1033B0000800FFF7A1FE00BFBD46BDE8804004B095
:1033C000704700BF5800002084B080B500AF07F1FF
:1033D000080C8CE80F004FF47A730722054907F1B7
:1033E0000800FFF789FE00BFBD46BDE8804004B07D
:1033F000704700BF6000002084B080B500AF07F1C7
:10340000080C8CE80F004FF47A730722054907F186
:103410000800FFF771FE00BFBD46BDE8804004B064
:10342000704700BF6800002084B080B500AF07F18E
:10343000080C8CE80F004FF47A730622054907F157
:103440000800FFF759FE00BFBD46BDE8804004B04C
:10345000704700BF7000002084B080B500AF07F156
:10346000080C8CE80F004FF47A730622054907F127
:103470000800FFF741FE00BFBD46BDE8804004B034
:10348000704700BF7800002084B080B500AF07F11E
:10349000080C8CE80F004FF47A730B22054907F1F2
:1034A0000800FFF729FE00BFBD46BDE8804004B01C
:1034B000704700BF8000002084B080B500AF07F1E6
:1034C000080C8CE80F004FF47A730622054907F1C7
:1034D0000800FFF711FE00BFBD46BDE8804004B004
:1034E000704700BF8C00002084B080B584B000AF6E
:1034F00007F1180C8CE80F000023FB813B1D002214
:103500001A605A601A7201233B713B799AB2FB89A7
:103510001344FB8100237B717B799AB2FB891344AE
:10352000FB810623BB71BB799AB2FB891344FB81F3
:103530000623FB71FB799AB2FB891344FB810123BB
:103540003B723B7A9AB2FB891344FB81B7F84C304B
:103550001B0A9BB2DBB27B727B7A9AB2FB89134463
:10356000FB81B7F84C30DBB2BB72BB7A9AB2FB89F5
:103570001344FB81FB891B0A9BB2DBB2FB72FB8904
:10358000DBB23B73391D4FF47A73092207F118003F
:10359000FFF7B2FD00BF1037BD46BDE8804004B064
:1035A0007047000084B080B58AB000AF07F1300CDE
:1035B0008CE80F00002387F8273007F1080300226A
:1035C0001A605A609A60DA601A61FE233B72002327
:1035D0003B71FFF705F93862244BFF221A7017E0A0
:1035E000391D4FF47A73012207F13000FFF732FEE4
:1035F0000346002B0CD197F827303A7907F12801C0
:103600000B4403F8202C97F82730013387F8273034
:10361000FFF7E6F802463B6AD31AB3F57A7F05D284
:1036200097F8272097F864309A42D9D397F8273033
:10363000002B03D1FE23FB77FB7F0FE097F82720B9
:1036400097F864309A4203D2FE23FB77FB7F05E0B4
:103650007B7CFB77FA7C054B1A70FB7F184628377A
:10366000BD46BDE8804004B0704700BFFD010020AA
:1036700084B0B0B58CB00AAF07F1180484E80F002D
:103680006D4607F128040FCC0FC50FCC0FC523687A
:103690002B6007F118030FCBFFF766FE6D4607F1AD
:1036A00028040FCC0FC50FCC0FC523682B6007F182
:1036B00018030FCBFFF700FF0E2309936D4607F1A8
:1036C00028040FCC0FC50FCC0FC523682B6007F162
:1036D00018030FCBFFF766FF0346FB71FB79002B46
:1036E00001D0FF2301E0044B1B7818460837BD4684
:1036F000BDE8B04004B07047FD01002084B0B0B513
:103700008CB00AAF07F1180484E80F000223FB71A4
:10371000FFF766F838602DE06D4607F128040FCCFE
:103720000FC50FCC0FC523682B6007F118030FCB13
:10373000FFF71AFE6D4607F128040FCC0FC50FCC1A
:103740000FC523682B6007F118030FCBFFF724FE8A
:103750000C2309936D4607F128040FCC0FC50FCC3D
:103760000FC523682B6007F118030FCBFFF71AFF73
:103770000346FB71FB79022B08D1FFF731F80246B3
:103780003B68D31A40F6B7329342C5D9FB79022B76
:1037900001D1022330E1FB79002B01D0FE232BE184
:1037A0006D4607F128040FCC0FC50FCC0FC5236859
:1037B0002B6007F118030FCBFFF7D6FD6D4607F11D
:1037C00028040FCC0FC50FCC0FC523682B6007F161
:1037D00018030FCBFFF7F8FD0C2309936D4607F193
:1037E00028040FCC0FC50FCC0FC523682B6007F141
:1037F00018030FCBFFF7D6FE0346FB71FB79002BB6
:1038000001D0FE23F8E00223FB71FEF7E9FF3860E8
:1038100007F150031846FEF7C9FB7B4B1A6807F106
:10382000500311461846FEF7CEFB2DE06D4607F11A
:1038300028040FCC0FC50FCC0FC523682B6007F1F0
:1038400018030FCBFFF790FD6D4607F128040FCC4E
:103850000FC50FCC0FC523682B6007F118030FCBE2
:10386000FFF79AFD0C2309936D4607F128040FCC4E
:103870000FC50FCC0FC523682B6007F118030FCBC2
:10388000FFF790FE0346FB71FB79022B08D1FEF790
:10389000A7FF02463B68D31A40F6B7329342C5D918
:1038A000FB79022B01D10223A6E0FB79002B01D08A
:1038B000FE23A1E06D4607F128040FCC0FC50FCC05
:1038C0000FC523682B6007F118030FCBFFF74CFDE2
:1038D0006D4607F128040FCC0FC50FCC0FC5236828
:1038E0002B6007F118030FCBFFF786FD0C2309931C
:1038F0006D4607F128040FCC0FC50FCC0FC5236808
:103900002B6007F118030FCBFFF74CFE0346FB714A
:10391000FB79002B01D0FE236EE06D4607F12804F1
:103920000FCC0FC50FCC0FC523682B6007F1180310
:103930000FCBFFF719FD6D4607F128040FCC0FC51B
:103940000FCC0FC523682B6007F118030FCBFFF7CF
:103950006BFD0C2309936D4607F128040FCC0FC5AE
:103960000FCC0FC523682B6007F118030FCBFFF7AF
:1039700019FE0346FB71FB790A2B01D10A233BE0B8
:10398000FB79002B01D0FE2336E06D4607F12804B9
:103990000FCC0FC50FCC0FC523682B6007F11803A0
:1039A0000FCBFFF7E1FCB7F84C3009936D4607F1F8
:1039B00028040FCC0FC50FCC0FC523682B6007F16F
:1039C00018030FCBFFF790FD0C2309936D4607F109
:1039D00028040FCC0FC50FCC0FC523682B6007F14F
:1039E00018030FCBFFF7DEFD0346FB71FB79002BBD
:1039F00001D0FE2300E0002318460837BD46BDE88D
:103A0000B04004B0704700BF9400002084B0B0B54F
:103A10008CB00AAF07F1180484E80F000223FB7191
:103A2000FEF7DEFE38602DE06D4607F128040FCC6E
:103A30000FC50FCC0FC523682B6007F118030FCB00
:103A4000FFF792FC6D4607F128040FCC0FC50FCC91
:103A50000FC523682B6007F118030FCBFFF79CFC01
:103A60000C2309936D4607F128040FCC0FC50FCC2A
:103A70000FC523682B6007F118030FCBFFF792FDEA
:103A80000346FB71FB79022B07D1FEF7A9FE024624
:103A90003B68D31AB3F5FA6FC6D3FB79022B01D179
:103AA000022366E0FB79002B01D0FE2361E06D4626
:103AB00007F128040FCC0FC50FCC0FC523682B606E
:103AC00007F118030FCBFFF74FFC6D4607F12804F1
:103AD0000FCC0FC50FCC0FC523682B6007F118035F
:103AE0000FCBFFF771FC0C2309936D4607F12804F7
:103AF0000FCC0FC50FCC0FC523682B6007F118033F
:103B00000FCBFFF74FFD0346FB71FB79002B01D074
:103B1000FE232EE06D4607F128040FCC0FC50FCC15
:103B20000FC523682B6007F118030FCBFFF71CFCB0
:103B30006D4607F128040FCC0FC50FCC0FC52368C5
:103B40002B6007F118030FCBFFF79EFC102309939E
:103B50006D4607F128040FCC0FC50FCC0FC52368A5
:103B60002B6007F118030FCBFFF71CFD0346FB7119
:103B7000FB7918460837BD46BDE8B04004B0704731
:103B800084B0B0B58CB00AAF07F1180484E80F0018
:103B90006D4607F128040FCC0FC50FCC0FC5236865
:103BA0002B6007F118030FCBFFF7DEFB6D4607F123
:103BB00028040FCC0FC50FCC0FC523682B6007F16D
:103BC00018030FCBFFF748FC0C2309936D4607F150
:103BD00028040FCC0FC50FCC0FC523682B6007F14D
:103BE00018030FCBFFF7DEFC0346FB71FB79002BBC
:103BF00001D0FE2300E0FB7918460837BD46BDE83A
:103C0000B04004B070470000014B1868704700BF17
:103C10009800002070B500250C4E0D4CA41BA4107C
:103C2000A54209D100F02CFC00250A4E0A4CA41B29
:103C3000A410A54205D170BD56F82530984701352E
:103C4000EEE756F8253098470135F2E7E8470008D7
:103C5000E8470008E8470008EC4700080EB46FF09A
:103C6000004100B59CB01DAB0290069007910491F5
:103C70000848094953F8042B0591006802A90193EB
:103C800000F066F80022029B1A701CB05DF804EB8D
:103C900003B07047980000200802FFFF2DE9F047AD
:103CA0008E6882469E420C469046994637D88A894D
:103CB00012F4906F31D00223256809696F1A656983
:103CC00005EB450595FBF3F509F101033B449D42E6
:103CD00038BF1D46530530D5294600F037FB064650
:103CE00050B90C234FF0FF30CAF80030A38943F0DD
:103CF0004003A381BDE8F0873A46216900F0B6FA97
:103D0000A38923F4906343F08003A38126613E449A
:103D100026604E466561ED1BA5604E4500D94E46B6
:103D200032464146206800F0ACFAA36800209B1B95
:103D3000A36023681E442660DCE72A4600F060FB8F
:103D400006460028E2D12169504600F0B3FAC8E7E0
:103D50002DE9F04F1D468B899DB01F0680460C460D
:103D600016460FD50B696BB9402100F0EFFA2060C1
:103D7000206128B90C23C8F800304FF0FF30C8E0AC
:103D8000402363610023099320238DF829303023D9
:103D90004FF0010B8DF82A30039537463D4615F854
:103DA000013B0BB1252B3ED1B7EB060A0BD0534696
:103DB000324621464046FFF771FF013000F0A480F3
:103DC000099B534409933B78002B00F09D8000230E
:103DD0004FF0FF32CDE90523049307938DF853305C
:103DE0001A932F46052217F8011B504800F030FAAD
:103DF000049BD0B9D90644BF20228DF853201A075E
:103E000044BF2B228DF853202A782A2A15D02F461A
:103E100000200A25079A394611F8013B303B092B4F
:103E20004DD9B8B10FE02F46B8E7404A3D46801A59
:103E30000BFA00F018430490D3E7039A111D12689F
:103E40000391002A01DB079204E0524243F002038F
:103E5000079204933B782E2B0CD17B782A2B33D1FD
:103E6000039B02371A1D1B680392002BB8BF4FF04B
:103E7000FF3305932E4D03223978284600F0E8F9E8
:103E800038B14023401B03FA00F0049B0137034381
:103E900004933978062227487E1C8DF8281000F0FC
:103EA000D7F9002838D0244B13BB039B073323F0EA
:103EB000070308330393099B4B4409936DE705FB04
:103EC000023201200F46A6E700230A2519460137D2
:103ED0000593384610F8012B303A092A03D9002BF4
:103EE000C8D00591C6E705FB012101230746F0E78D
:103EF00003AB00932246114B04A94046AFF3008068
:103F0000B0F1FF3F8146D6D1A3895B063FF535AFBF
:103F100009981DB0BDE8F08F03AB00932246074B14
:103F200004A9404600F082F8EAE700BFB347000862
:103F3000B9470008BD470008000000009D3C00088C
:103F40002DE9F04791461F468A680B690646934261
:103F5000B8BF1346C9F8003091F843200C46DDF88D
:103F6000208012B10133C9F800302368990642BF9E
:103F7000D9F800300233C9F80030256815F006057D
:103F800007D104F1190AE368D9F800209B1AAB4263
:103F900029DC94F843302268003318BF01239206CD
:103FA0002ED404F1430239463046C047013021D0B7
:103FB0002368E56803F00603042B18BF0025D9F831
:103FC00000204FF0000908BFAD1AA368226908BF9E
:103FD00025EAE5759342C4BF9B1AED181A344D4586
:103FE0001AD1002008E00123524639463046C04726
:103FF000013003D14FF0FF30BDE8F0870135C2E753
:104000003020E11881F843005A1C94F845102244EE
:10401000023382F84310C4E7012322463946304672
:10402000C0470130E6D009F10109D8E72DE9F04396
:1040300001F1430C0C46097E85B06E2917460646F1
:1040400098460C9A00F0B38022D8632936D00AD85B
:10405000002900F0B980582900F0838004F142055E
:1040600084F8421032E0642901D06929F6D1206831
:104070001368050603F104012AD51B681160002BA3
:1040800003DA2D225B4284F843206F480A2239E08C
:10409000732900F09D8008D86F2920D07029DDD1C8
:1040A000236843F02003236003E0752917D07829A3
:1040B000D4D17823654884F8453055E0136804F17D
:1040C0004205191D1B68116084F8423001238CE001
:1040D0001B6810F0400F116018BF1BB2CFE71368C8
:1040E0002568181D1060280601D51B6802E06806C7
:1040F000FBD51B886F2914BF0A22082252480021D1
:1041000084F843106568002DA560C0F29580216891
:1041100021F004012160002B3DD1002D40F08E8064
:104120006546082A0BD12368DB0708D52369626836
:104130009A42DEBF302305F8013C05F1FF35ACEBB8
:1041400005032361CDF800803B4603AA2146304693
:10415000FFF7F6FE01304DD14FF0FF3005B0BDE85E
:10416000F083394884F84510136821681D1D1B68C9
:1041700015600A060BD5CA0744BF41F02001216033
:104180001BB9226822F0200222601022B7E74D06F8
:1041900048BF9BB2EFE76546B3FBF2F102FB113378
:1041A000C35C05F8013D0B460029F5D1B9E713685A
:1041B0002568181D6169106028061B6801D5196003
:1041C00002E06A06FBD51980002365462361B9E742
:1041D0001368191D11601D6862680021284600F0EF
:1041E00037F808B1401B606063682361002384F8DE
:1041F0004330A7E723692A4639463046C047013095
:10420000AAD023689B0713D4E068039B9842B8BFE9
:104210001846A3E701234A4639463046C0470130D5
:104220009AD00135E368039A9B1AAB42F2DCEBE7C4
:10423000002504F11909F5E7002BACD1037804F14E
:10424000420584F842306CE7C4470008D5470008AF
:1042500010B5C9B202449042034601D1002303E0E5
:104260001C7801308C42F6D1184610BD10B5431EA3
:104270000A44914200D110BD11F8014B03F8014FDF
:10428000F7E7884210B501EB020307D8421E9942B6
:104290000AD011F8014B02F8014FF8E78342F5D933
:1042A0008118D21AD34200D110BD13F8014D01F884
:1042B000014DF7E738B50546002943D051F8043CD5
:1042C0000C1F002BB8BFE41800F0D0F81E4A13688A
:1042D000104633B9636014602846BDE8384000F0EA
:1042E000C6B8A3420BD921686218934201BF1A686D
:1042F0005B685218226063600460EDE713465A68F9
:104300000AB1A242FAD919685818A0420BD1206804
:104310000144581882421960DED110685268014485
:1043200019605A60D8E702D90C232B60D4E72068C3
:1043300021188A4201BF1168526809182160626021
:104340005C60C9E738BD00BF5C01002070B5CD1CC2
:1043500025F0030508350C2D38BF0C25002D064629
:1043600001DBA94203D90C233360002070BD00F0AB
:104370007DF8214A1468214691B9204C23681BB965
:10438000304600F063F820602946304600F05EF8C1
:10439000431C24D10C233046336000F068F8E4E776
:1043A0000B685B1B18D40B2B0FD90B60CC18CD50AE
:1043B000304600F05CF804F10B00231D20F00700EC
:1043C000C31AD3D05A42E250D0E74B688C4216BF92
:1043D000636013600C46EBE70C464968CCE7C41CED
:1043E00024F00304A04205D0211A304600F02EF834
:1043F0000130CFD02560DBE75C01002060010020A8
:10440000F8B5074614460E4621B9BDE8F8401146F6
:10441000FFF79CBF22B9FFF74DFF25462846F8BDA0
:1044200000F026F8A0420FD221463846FFF78EFF53
:1044300005460028F2D031462246FFF717FF3146E5
:104440003846FFF737FFE9E73546E7E738B5002399
:10445000054C054608462360FBF78AFE431C02D143
:10446000236803B12B6038BD2C02002070477047D1
:1044700051F8043C181F002BBCBF0B58C0187047E4
:10448000F8B500BFF8BC08BC9E467047F8B500BF41
:08449000F8BC08BC9E46704711
:1044980043686F6F7365205572204F7074696F6E33
:1044A80020212100413A204650000000423A205283
:1044B80046494400507265737320557220506173E9
:1044C8007321000057454C434F4D45212100000002
:1044D80057726F6E672050617373776F7264000054
:1044E800436865636B696E672046696E676572002D
:1044F80046696E676572204572726F7221210000ED
:1045080050757420596F7572204361726400000001
:1045180052464944204572726F7221210000000002
:1045280052656769737465722046696E67657200C3
:104538004E756D6265722049443A2025640000007A
:1045480046696E676572204E6F7420466F756E649B
:104558000000000052656769737472792046696EBD
:1045680067657200444F4E45203A3E00414444205E
:10457800524649440000000043686F6F7365205439
:104588006865204361726400546F205265706C61E5
:1045980063653A312C322C3300000000596F757274
:1045A800206E756D6265723A20257800507574200A
:1045B8005572204361726421210000005549445F0F
:1045C80025783A2025782C25782C25782C257800F4
:1045D8004368616E67652050617373776F7264001A
:1045E80050617373576F726400000000436F6E660A
:1045F80069726D2050617373776F72643A000000BE
:104608005265676973747279205061737300000092
:1046180020426F7468204172650000004469666634
:104628006572656E74000000436C65617220414CD0
:104638004C21212100000000436F756C64204E6FEF
:104648007420436C65617200436F756C64204E6F13
:104658007420436C656172203A3E3E00444F4E45DB
:1046680000000000444F4E45203A3E3E0000000046
:10467800546F20436C6561723A20312C322C330020
:104688005265676973747279204E65772046696E42
:104698006765722020200D0A00000000506C6561DB
:1046A8007365207075742046696E67657220496E5F
:1046B80020200D0A00000000506C656173652052CF
:1046C800656D6F76652046696E6767657220200D97
:1046D8000A0000005075742046696E676572206193
:1046E8006769616E2020202020200D0A000000004C
:1046F80046696E676572206E6F74206D61746368B9
:104708002020202020200D0A0000000046696E6746
:104718006572204572726F72202020202020202090
:1047280020200D0A00000000436865636B696E670E
:104738002046696E676572202020202020200D0AFF
:104748000000000046696E676572204E6F7420464F
:104758006F756E642020202020200D0A00000000C4
:1047680046696E67657220466F756E642020212148
:104778002121202020200D0A0000000052656769D1
:10478800737472792046696E67657220446F6E652E
:1047980020200D0A0000000064656C6574652061C6
:1047A8006C6C20646F6E65200D0A00232D302B2061
:1047B80000686C4C00656667454647003031323307
:1047C8003435363738394142434445460030313272
:1047D8003334353637383961626364656600000002
:0447E800550100086F
:0447EC00310100088F
:1047F000020000004E0000004D00000048000000D4
:10480000313233343132334134353642373839433B
:104810002A3023440405060700010B0C02000400A3
:10482000080010004000800000010002020408108F
:1048300002030405060708090A0B0C0D0E0F1010E1
:10484000EF01FFFFFFFF0000010003010005000072
:104850000100040201000800010004020200090036
:1048600001000305000900000100030D0011000014
:10487000010008040100000040004E000100031D7B
:1048800000210000DC4600089C0000200000000021
:104890000000000000000000000000000000000018
:1048A0000000000000000000000000000000000008
:1048B00000000000000000000000000000000000F8
:1048C00000000000000000000000000000000000E8
:1048D00000000000000000000000000000000000D8
:0C48E000000000000000000000000000CC
:04000005080011E9F5
:00000001FF
